:020000040000FA
:1000000000D5002005430000E93C0000BD020000CF
:10001000E7110000E7110000E7110000E711000000
:10002000000000000000000000000000E7110000D8
:10003000E711000000000000030200000F43000071
:100040004F78020007790200C7780200ED770200BE
:100050004F78020007790200C7780200ED770200AE
:100060000000000000000000000000000000000090
:100070000000000000000000000000000000000080
:100080000000000000000000000000000000000070
:100090000000000000000000000000000000000060
:1000A0000000000000000000000000000000000050
:1000B0000000000000000000000000000000000040
:1000C0000000000000000000000000000000000030
:1000D0000000000000000000000000000000000020
:1000E0000000000000000000000000000000000010
:1000F0000000000000000000000000000000000000
:1001000000000000000000000000000000000000EF
:1001100000000000000000000000000000000000DF
:1001200000000000000000000000000000000000CF
:1001300000000000000000000000000000000000BF
:1001400000000000000000000000000000000000AF
:10015000000000000000000000000000000000009F
:10016000000000000000000000000000000000008F
:10017000000000000000000000000000000000007F
:10018000000000000000000000000000000000006F
:10019000000000000000000000000000000000005F
:1001A000000000000000000000000000000000004F
:1001B000000000000000000000000000000000003F
:1001C000DFF80CD000F064FF00480047DD110000AC
:1001D00000D10020EFF3108072B6704780F31088D2
:1001E0007047444A1368012B04D04FF00103136099
:1001F000414A1060414A116041484FF0805101600E
:100200007047EFF3108272B63A48016851B34FF06D
:10021000000101603848016891B1EFF309811EF0D7
:10022000100F08BF21ED108B21E9F00F4FF00004F3
:100230001EF0100F08BF012441F8044D0068016052
:100240002E490968096808C9B1E8F00F002B18BFEA
:10025000B1EC108B81F309884EF0100E002B18BF03
:100260002EF0100E82F310884EF0040E70472349D2
:100270000860EFF3148222F0040282F314881E490E
:100280004FF0000008601B494FF0010008601D4856
:100290001D49D0F8002041EA0201016018484FF0E2
:1002A0008051016019480068006880F3088861B6D1
:1002B00062B6BFF34F8FBFF36F8F70471EF0040F0E
:1002C0000CBFEFF30880EFF3098020E9F00F40F84E
:1002D00004ED40F804ED1EF0040F0CBF80F3088815
:1002E00080F3098800B522F06DFB5DF804EB4EF059
:1002F000040E704784CD0020C0CA0020CCCA002064
:1003000004ED00E020ED00E00000FFFF08ED00E05C
:100310002DE9F05F0546002092469B46884606463A
:10032000814640241BE0284641464746224600F0CD
:10033000CFFC53465A46C01A914110D31146184675
:10034000224600F0B6FC2D1A67EB01084F46224604
:100350000120002100F0ADFC17EB00094E41201EEA
:10036000A4F10104DFDC484631462A464346BDE895
:10037000F09F000000487047E80D030010B50446E8
:10038000FFF7F8FF0068005D00F0010010BDA0F16C
:100390006101192900D820387047A0F141011929BD
:1003A00000D82030704700000649074A08685043CB
:1003B00043F2390210440860400870470149086060
:1003C00070470000000000206D4EC64140EA010366
:1003D0009B0703D009E008C9121F08C0042AFAD2FB
:1003E00003E011F8013B00F8013B521EF9D27047BF
:1003F000D2B201E000F8012B491EFBD27047002267
:10040000F6E710B513460A4604461946FFF7F0FF13
:10041000204610BD421E12F8013F002BFBD111F8FF
:10042000013B02F8013B002BF9D1704730B505467E
:100430002A460B4612F8010B13F8014B08B1A042F3
:10044000F8D01CB1002802D06D1CF1E7284630BD61
:1004500010B5044604E00B7800F8013B03B1491CD9
:10046000521EF8D2204610BDCAB2401E10F8011F1D
:100470008A4202D00029F9D100207047421C10F8AE
:10048000011B0029FBD1801A704710B5002200E043
:10049000521C835C8C5CA34201D1002BF8D1D8B2F2
:1004A000E1B2401A10BD30B504460020034600E01A
:1004B0005B1C934203D2E05CCD5C401BF8D030BDA6
:1004C00010B5044600E0401C0378002BFBD100E08F
:1004D000401C521E04D311F8013B0370002BF7D1CE
:1004E00000210170204610BD034611F8012B00F8D1
:1004F000012B002AF9D11846704730B50546002077
:10050000034600E05B1C934205D2EC5CC85C201AF9
:1005100001D1002CF6D130BD0022CBB20178994236
:1005200000D10246401C0029F8D110467047000057
:100530002DE9FF4F087883B09946FF2805D0491C64
:100540002D2804D00024002008E000200BE0012426
:10055000F9E700EB800003EB4000491C0B78FF2B10
:10056000F7D104B1404200230293147819461D4686
:100570002D2C01D02B2C04D1521C2D2C13D0002457
:100580000294AA461478FF2C0FD00A25A3FB057805
:1005900001FB05814FF0000C03FB0C11521CE31909
:1005A0004AEB0101EEE70124EAE7814453EA010046
:1005B00002D019F5C87F06DA03980021C0E90011BE
:1005C00007B0BDE8F08F0025AE4E2F46DFF8B882A9
:1005D000184600F0EDFCCDE90001B9F1000002DAA7
:1005E000C9F1000400E004460023A74A1AEB030BFC
:1005F00042EB045A12E0E00707D02A463346384659
:10060000414600F0F9F9074688462A463346104627
:10061000194600F0F1F905460E466410002CEAD1A7
:10062000DDE90001B9F1000F5A46534606DA00F041
:1006300055FA3A46434600F051FA05E000F0DCF97D
:100640003A46434600F0D8F9029A0AB181F00041D7
:10065000039AC2E90001B3E72DE9FF4F1F468DB0B1
:10066000D7E901464FF0FF382E2045464FF00009EC
:100670000B90B9696D1C0E988847396A8246884785
:100680000028F6D1BAF1FF3F0AD024F4D064002E3E
:1006900011DDBAF12B0F08D0BAF12D0F0BD102E00A
:1006A000404611B08DE744F48064B9696D1C0E9822
:1006B00088478246761E6946600501D52D2000E0F8
:1006C0002B208DF8000001F1010B0DF1200809E04D
:1006D000B9696D1C0E98884782460F9844F40074DF
:1006E000761E0560002E02DDBAF1300FF0D00B99B6
:1006F0008A453ED144F0800406E00F99681CA9F1B8
:10070000010944F400740860B9696D1C761E0E98E6
:10071000884782463028F0D02BE00B998A4505D1D6
:10072000200603D444F08004761E18E050462FF0D3
:1007300075FF08B30DF11302761EAAF1300044F4E0
:100740000074934506D20BF8010B200607D5A9F1DA
:10075000010003E0200602D409F101008146A00552
:1007600002D50F99681C0860B9696D1C0E988847FE
:100770008246002ED1DC53E0002E51DDBAF1650F28
:1007800002D0BAF1450F4BD1A00549D5B9696D1C0E
:1007900024F44074761E0E9888478246002E0CDDA5
:1007A0002B2804D0BAF12D0F07D144F48074B96915
:1007B0006D1C0E9888478246761EE00501D52D21D6
:1007C00000E02B2108F8011BCDF82C8021E00DF171
:1007D0002901761E44F4007488450CD2AAF1300039
:1007E00010F0FF0088F8000002D10B99884509D964
:1007F00008F1010806E0E00501D5244801E042F2D5
:100800000F708146B9696D1C0E98884782460F9813
:100810000560002E04DD50462FF000FF0028D6D1E1
:10082000F9690E988847FF208BF8000088F80000CF
:100830000020069007904B466A4608A906A8FFF7D5
:1008400077FEA00502D46FF001002AE714F0240F10
:100850000AD0E00714D1DDE906123868031D3B60B9
:100860000068C0E900120BE0DDE9060100F0F4FBCE
:100870000146E00704D13868021D3A600068016053
:1008800028460EE7000014400000F03FF1D8FFFFBB
:1008900070B506462FF068FD046805460A2200215F
:1008A000304600F0ABFA2C6070BD2DE9FE4F80465B
:1008B00081EA0300C00F0C46009021F0004123F0B4
:1008C0000045B8EB0200A94105D2404621469046BA
:1008D0001C460B46024623F00040104347D0270D2C
:1008E000C7F30A00C3F30A510290401A019040284E
:1008F0006BDAC3F3130040F4801B0098924620B1DA
:100900000023D2EB030A63EB0B0B01985946C0F1AD
:100910004002504600F0CDF906460D465046594675
:10092000019A00F0E5F910EB08006141002487EA24
:10093000115284EAE7731A4340D0009A62B3019AD5
:10094000012A4FEA075215DC001B61EB02014FF050
:10095000004202EA0752CDE90042001C41F5801135
:1009600032462B4600F091FA03B0BDE8F08F4046C6
:100970002146F9E7001B61EB0201001C41F58013E1
:1009800000185B412018A2F5001747EB030140EA6D
:10099000D570B6196D4111E06D084FEA360645EA8B
:1009A000C0754FEA0752001B61EB0201001C41F5C4
:1009B000801149084FEA30000019514132462B4658
:1009C00003B0BDE8F04F00F051BA0098012240009A
:1009D0000023D0EB020263EBE073009821464FEA5C
:1009E000E074B8EB000061EB0401E9E783F0004339
:1009F0005BE781F0004158E72DE9FE4F81EA0304EF
:100A000004F0004421F0004100944FF0000B23F06B
:100A1000004350EA01045ED052EA03045BD0C3F302
:100A20000A54C1F30A552C44A4F2F3340194A0FBF8
:100A30000254C1F3130141F48011C3F3130343F4CF
:100A4000801301FB024400FB034E840A970A44EA28
:100A5000815447EA8357A4FB076802958D0A05FB7A
:100A600007854FEA932C04FB0C542705029D4FEA9F
:100A7000065847EA1637B5EB08056EEB070C870EEC
:100A8000920E47EA811742EA8312A7FB0201B6EBF6
:100A90000B0164EB00042B0D43EA0C335E1844EBAE
:100AA0001C50DA465146E7FB0201C5F313044FEA36
:100AB0000B3343EA14534FEA0432019C43EA060322
:100AC000A4F10C040294009CCDE900B400F0DDF91F
:100AD00003B0BDE8F08F00200146F9E72DE9F04DA5
:100AE00081EA030404F0004B21F0004514464FF066
:100AF000000A23F0004150EA050220D054EA010226
:100B00001DD0C5F30A570246C5F31303C1F3130002
:100B1000C1F30A5640F4801543F48013A7EB06088E
:100B2000101BD64608F2FD3873EB050002D308F11E
:100B3000010801E092185B41B8F1000F03DA0020D0
:100B40000146BDE8F08D00204FF480110646844632
:100B50000EE0171B73EB050705D3121B63EB0503B0
:100B600006434CEA010C49084FEA300092185B41F9
:100B700050EA0107EDD152EA030012D082EA0400E4
:100B800083EA0501084305D0101BAB4106D20122C0
:100B9000002306E000224FF0004302E06FF0010264
:100BA00053101AEB06004CEB085110EB0A0041EB16
:100BB0000B01BDE8F04D00F059B930B5041E71F1DC
:100BC000000404DB4FF00044404264EB0101141EBA
:100BD00073F1000405DB1C464FF00043524263EB07
:100BE0000403801A994101D3012030BD002030BD9B
:100BF00030B5041E71F1000404DB4FF000444042A4
:100C000064EB0101141E73F1000405DB1C464FF078
:100C10000043524263EB0403101A8B4101D30120BD
:100C200030BD002030BD0EB5C10F80EAE070084431
:100C3000CA07002140F233438DE80E000A460B46F6
:100C400000F023F903B000BD70B5C1F30A5201F002
:100C500000450024C1F3130140F2FF3341F4801139
:100C60009A4201DA002070BD40F233439A42A2F268
:100C7000334203DC524200F02BF800E090402C435A
:100C8000F1D0404270BD30B50B4601460020202215
:100C9000012409E021FA02F59D4205D303FA02F589
:100CA000491B04FA02F52844151EA2F10102F1DCE9
:100CB00030BD202A04DB203A00FA02F10020704700
:100CC0009140C2F1200320FA03F31943904070478A
:100CD000202A04DB203A21FA02F00021704721FA91
:100CE00002F3D040C2F120029140084319467047F8
:100CF000202A06DBCB17203A41FA02F043EAE073E0
:100D000006E041FA02F3D040C2F1200291400843CC
:100D100019467047426842B1016811F8013B23B19E
:100D2000521EC0E90012184670470121C160881E9A
:100D3000704742685AB1C368016843B983688B42FF
:100D400005D0491E521CC0E90012002070474FF028
:100D5000FF3070470FB40B0010B58AB00FA9009197
:100D60000E994FF00004234ACC60214CCDE9064295
:100D700000D004236FF00042CDE901321E4A0892F0
:100D800002466B460020FFF767FC0AB010BC5DF816
:100D900014FBF0B585B007464FF0FF300091CDE968
:100DA00001011E46002015460C4604903B466A464B
:100DB000314604A8FFF7CEFF04990346601825B119
:100DC00009B1024600E022462A6000290ED0002B1D
:100DD00002DD0099814209D00094001BCDE9010495
:100DE0003B466A46314604A8FFF7B4FF05B0F0BDA4
:100DF000150D0000330D00007D0300002DE9F047C4
:100E000091460F4680460446002614F8015B2DB13A
:100E1000FFF7B0FA0068405DC007F6D12B2D02D075
:100E20002D2D18D0641E4A463946204600F042F95E
:100E300027B13968A14201D1C7F8008071054FF090
:100E400002040BD54042002803DD2FF08DFA046028
:100E5000A007BDE8F08746F48066E4E70028F8DAEA
:100E60002FF082FA04606FF00040F2E710B5141E14
:100E700073F1000408DA401C41F1000192185B4153
:100E80001A4301D120F0010010BD2DE9F04D92462A
:100E90009B4611B1B1FA81F202E0B0FA80F2203241
:100EA0009046FFF706FF04460F4640EA0A0041EA73
:100EB0000B0153465A46084313D0114653EA01002A
:100EC00019D0C8F140025046FFF702FF05460E4612
:100ED000504659464246FFF7ECFE084305D0012034
:100EE00004E020463946BDE8F08D0020054346EA7F
:100EF000E0762C4337430A986305E40AA0EB080028
:100F00000022FD0A44EA47540A3002D50020014677
:100F1000E9E7010510196941DDE908450019694152
:100F2000BDE8F04DA2E700002DE9F041054621F0B3
:100F300000400C46284309D0C4F30A5040F2334124
:100F4000884205DD28462146BDE8F0812846FBE7BA
:100F500040F2FE31884210DC0CDB4FEA043040EAFC
:100F6000155050EA053105D0104804F00041014306
:100F70000020E9E700200146E6E7A0F233404642C0
:100F8000C6F1400228462146FFF793FE07468846F1
:100F9000284621463246FFF79BFE43463A46FFF776
:100FA00065FF3246BDE8F041FFF783BE0000F03F29
:100FB0000EB540F2334202920022CDE900221346E0
:100FC000FFF763FF03B000BDC1F30A52C1F3130181
:100FD00040F2FF3341F480119A4202DA00200146C8
:100FE000704740F233439A42A2F2334202DC52424B
:100FF000FFF76EBEFFF75DBE30B5041E71F1000451
:1010000004DB4FF00044404264EB0101141E73F115
:10101000000405DB1C464FF00043524263EB04031F
:101020008B4208BF824230BD30B5041E71F100040E
:1010300004DB4FF00044404264EB0101141E73F1E5
:10104000000405DB1C464FF00043524263EB0403EF
:10105000994208BF904230BD01F0004330B421F006
:10106000004150EA010206D00A0DA2F56072C1F3F8
:101070001301002A02DC30BC00207047440F44EA10
:10108000C104C100E01830BC00EBC25000F061B8F0
:10109000064C074D06E0E06840F0010394E80700C5
:1010A00098471034AC42F6D3FFF78EF8F461030092
:1010B000146203002DE9F05F824600780027154690
:1010C0008B460AF10104B946302801D09DB113E0E6
:1010D00014F8010B0127782803D0582801D045B116
:1010E0000AE00DB1102D07D10027102514F8010BCF
:1010F00002E0082500E00A250026B0460EE005FBC8
:10110000080005FB06F1012701EB10461FFA80F8E5
:10111000B6F5803F00D3B94614F8010B294600F01C
:101120004FF80028EBDABBF1000F05D00FB1641EB9
:1011300000E05446CBF80040B9F1000F06D02FF084
:1011400013F902210160C81EBDE8F09F48EA06407D
:10115000FAE70029A8BF7047401C490008BF20F0EB
:101160000100704710B4B0FA80FC00FA0CF050EAAD
:10117000010404BF10BC704749B1CCF1200421FA2E
:1011800004F411FA0CF118BF012121430843A3EB29
:101190000C01CB1D4FEA00614FEA102042BF002036
:1011A00010BC704700EBC35010440029A4BF10BC12
:1011B0007047401C490008BF20F0010010BC704778
:1011C0003A2800D2303820F02002412A01D3A2F17F
:1011D0003700884201D34FF0FF30704780B525F0CB
:1011E000D5FF002080BD00BE704721F076BB10B552
:1011F00021210446FFF703F940F20C01C2F200017D
:1012000020462022FFF724F9BDE81040FFF736B949
:1012100010B541210446FFF7F2F840F23001C2F266
:10122000000120464022FFF713F9BDE81040FFF708
:1012300025B9000010B5044620B90AA00BA124224C
:1012400020F04AFD20462021FFF7D9F80DA12046C5
:101250002022FFF7BBF800212046E175BDE81040D1
:10126000FFF70CB976657273696F6E0048414C5F89
:101270004765744669726D77617265566572736908
:101280006F6E00006170702D312E302E302D323097
:101290003138303130312E31303030000000000034
:1012A000000000000000000010B515210446FFF703
:1012B000A6F840F20411C2F2000120461422FFF702
:1012C000C7F8BDE81040FFF7D9B810B54121044672
:1012D000FFF795F840F21C11C2F2000120464022AF
:1012E000FFF7B6F8BDE81040FFF7C8B821F086BF99
:1012F00001A0002122F03ABC616C695F6C645F6DF3
:10130000757465780000000010B522F061FC90B1A2
:10131000044642F6A820C0F2030021F03FFF06A0D9
:10132000214621F03BFF42F25860C0F20300BDE8C5
:10133000104021F033BF10BD64657374726F792063
:101340006D75746578206661696C65642C206572C2
:1013500072206E756D3A20256400000010B54FF0C4
:10136000FF3122F099FD90B1044642F6A820C0F268
:10137000030021F013FF06A0214621F00FFF42F2E7
:101380005860C0F20300BDE8104021F007BF10BD57
:101390006C6F636B206D75746578206661696C6530
:1013A000642C20657272206E756D3A2025640000F1
:1013B00010B522F0BDFC90B1044642F6A820C0F260
:1013C000030021F0EBFE06A0214621F0E7FE42F2E9
:1013D0005860C0F20300BDE8104021F0DFBE10BD30
:1013E000756E6C6F636B206D7574657820666169CE
:1013F0006C65642C20657272206E756D3A202564D0
:101400000000000083B010B581B042F2440484466D
:1014100003A8C2F200040EC003AB2046802162463E
:10142000009325F0FFFB04A0214621F0B7FE01B098
:10143000BDE8104003B070472573000070B5054645
:10144000FFF71CF8202802DD4FF0FF340DE040F2DA
:101450000C06C2F20006044630462121FEF7CFFFFB
:10146000304629462246FEF7F3FF204670BD70B590
:101470000546FFF703F8402802DD4FF0FF340DE08A
:1014800040F23006C2F20006044630464121FEF723
:10149000B6FF304629462246FEF7DAFF204670BDE9
:1014A00070B50546FEF7EAFF142802DD4FF0FF3461
:1014B0000DE040F20416C2F2000604463046152143
:1014C000FEF79DFF304629462246FEF7C1FF204623
:1014D00070BD70B50546FEF7D1FF402802DD4FF024
:1014E000FF340DE040F21C16C2F2000604463046FE
:1014F0004121FEF784FF304629462246FEF7A8FF29
:10150000204670BD24F082BF81B080B581B00393C6
:1015100003AB009325F086FB01B0BDE8804001B02D
:101520007047000080B506F0E3FA88B142F25E60D1
:10153000C0F2030021F032FE06A021F02FFE42F29D
:101540005860C0F2030021F029FE4FF0FF3080BD4B
:10155000002080BD636C6F7365736F636B6574206F
:101560006572726F720000002DE9F0478CB005467D
:10157000002004AE0C46039030462021FEF73FFFCA
:10158000022005900120069006200DF10607079025
:1015900035A1384622462EF0D3FE03AB2846394605
:1015A00032460EF07AFC80B142F25E60C0F2030077
:1015B00021F0F4FD2DA021F0F1FD42F25860C0F2BF
:1015C000030021F0EBFD002647E0039F97B342F2B2
:1015D0005E6442F258650FF2A8080FF2B8090FF2E4
:1015E000C80AC0F20304C0F2030500BF786846468B
:1015F000022813D1D7E90212022026F0D3FC0028DA
:101600000AD4D7E90421064606F064FF48B3304601
:1016100006F06EFA564601E04E4600BF204621F025
:10162000BDFD304621F0BAFD284621F0B7FDFF6927
:10163000002FDBD142F25E60C0F2030021F0AEFD6C
:101640001DA021F0ABFD42F25860C0F2030021F072
:10165000A5FD002603980DF0BEFE30460CB0BDE897
:10166000F087002EF6D1E5E7257500006765746107
:10167000646472696E666F206572726F720000003A
:10168000736F636B65742074797065206572726F17
:101690007200000063726561746520736F636B652F
:1016A00074206572726F7200636F6E6E6563742072
:1016B0006572726F720000006661696C20746F2041
:1016C00065737461626C69736820746370000000F4
:1016D0002DE9F04F87B01E4615460F46044600F030
:1016E000D7F910EB060941F1000604F01F000121B3
:1016F00001FA00F003900194601C00244FF00008F0
:10170000029000BF00F0C4F9B9EB000B76EB010AC0
:1017100044F10002D2F101021CBF4FF0000A4FF069
:10172000000BB0EB090071EB060073D206AC20464B
:101730000021042222F0EEF9069803994FF47A7200
:1017400008430690584651460023FEF7E1FD4FF44A
:101750007A7200FB12B1002301FB02F10022CDE9F5
:1017600004010298214604AC009426F01FF90128D8
:1017700028DB019807EB0801A5EB0802002320F005
:1017800060F8012802DB804418E000BF28B32EF087
:10179000EBFD046842F25E60C0F2030021F0FEFC43
:1017A0000B2C2CD142F27060C0F2030021F0F6FC49
:1017B00042F25860C0F2030021F0F0FC0024A8457A
:1017C000A0D308E038B142F25E60C0F2030021F01D
:1017D000E5FC14A014E000241CE042F25E60C0F2BC
:1017E000030021F0DBFC17A021F0D8FC42F2586086
:1017F000C0F2030021F0D2FC4FF0FF340AE00EA04B
:1018000021F0CCFC42F25860C0F2030021F0C6FC8B
:101810006FF00104B8F1000F18BF4446204607B02E
:10182000BDE8F08F73656C6563742D726563762017
:101830006661696C0000000072656376206661690C
:101840006C000000636F6E6E656374696F6E206973
:101850007320636C6F736564000000002DE9F04F26
:101860008BB01C4616460691054600F011F910EBA8
:10187000040905F01F004FF0010808FA00F0029477
:1018800041F100070595691C054600240491039069
:1018900000F0FEF8B9EB000B77EB010A4FF0000205
:1018A00042F10002D2F101021CBF4FF0000A4FF0DA
:1018B000000BB0EB090071EB070029D20794344606
:1018C0000AAE30460021042222F024F90A9851463B
:1018D00028430A9058464FF47A720023FEF718FD09
:1018E0004FF47A7200FB12B1002301FB02F1324681
:1018F000CDE908010498002108AE009626F056F8BC
:10190000012830DB0A982646284241D0079C02E095
:10191000B8F1010F4EDB0698321B01190598002320
:1019200026F08AF98046012801DB444442E0B8F100
:10193000000F4AD02EF018FD056842F25E60C0F23A
:10194000030021F02BFC0B2D67D142F27060C0F236
:10195000030021F023FC42F25860C0F2030021F0A2
:101960001DFC039D26E08046002840D02EF0FCFCA4
:10197000056842F25E60C0F2030021F00FFC0B2DFF
:1019800040D142F27060039DC0F20300264608E099
:1019900042F25E60C0F2030021F000FC4FF000084C
:1019A00036A0079C21F0FAFB42F25860C0F2030017
:1019B00021F0F4FBB44239D200F06AF8B0EB090030
:1019C00071EB0700FFF464AF30E042F25E60C0F2FA
:1019D000030021F0E3FB25A021F0E0FB42F2586078
:1019E000C0F2030021F0DAFB4FF00008E2E742F218
:1019F0005E60C0F2030021F0D1FB029912A021F039
:101A0000CDFB02E00BA021F0C9FB42F25860C0F20E
:101A1000030021F0C3FB079C08E011A021F0BEFBEE
:101A200042F25860C0F2030021F0B8FB20460BB030
:101A3000BDE8F08F73656C6563742D7772697465AA
:101A4000206661696C00000073656C6563742D77B6
:101A5000726974652074696D656F75742025640002
:101A600073656E64206661696C0000004E6F2064CF
:101A70006174612062652073656E740053686F75D0
:101A80006C64204E4F5420617272697665000000CC
:101A900080B524F036FE002180BD25F0C3B80000DB
:101AA000F0B581B00C46014600284FF0FF3000F140
:101AB000B680002C00F0B3800D2900F2AE8000202B
:101AC000DFE801F009101643717807077FADADAB71
:101AD000AB86012076E0206841F65051C2F2000149
:101AE000086098E041F65050C2F20000006866E0DD
:101AF00041F65056C2F20006B06840F26027052158
:101B0000C2F20007316020B1FFF76FFB0020B06028
:101B100078612046FEF7B2FC0130FFF7E7FB0028B2
:101B2000B0607AD005462046FEF7A8FC411C284646
:101B3000FEF765FCB5682046FEF7A0FC0246284685
:101B40002146FEF743FCB0682BE041F65056C2F246
:101B50000006F06840F248270521C2F20007316014
:101B600020B1FFF742FB0020F06078612046FEF7CD
:101B700085FC0130FFF7BAFB0028F0604DD0054628
:101B80002046FEF77BFC411C2846FEF738FCF56832
:101B90002046FEF773FC024628462146FEF716FC57
:101BA000F068786137E0206841F65051C2F20001D8
:101BB000486030E041F65050C2F2000040682060BA
:101BC00029E00220214601B0BDE8F0400FF075BECB
:101BD00041F65056C2F20006306918B1FFF705FB16
:101BE000002030612046FEF749FC0130FFF77EFB04
:101BF000306190B105462046FEF740FC411C284666
:101C0000FEF7FDFB35692046FEF738FC0246284604
:101C10002146FEF7DBFB002001E04FF0FF3001B072
:101C2000F0BD000070B586B0B0F1FF3F30DD41F689
:101C30000C55C2F200050446A868C0B3286808B174
:101C4000FFF78CFB002C4AD1E868002847D101201F
:101C5000E86044F68510C0F200000024049002A859
:101C6000CDE902440FF0A8FB20B342F6D72042F69C
:101C700038310FF2880CC0F20300C0F203014FF4B8
:101C800071720223CDF800C001F046F9EC6026E045
:101C900042F6D72042F62635C0F2030023A140F2D7
:101CA000CA42C0F203050223009501F035F94FF056
:101CB000FF341AE0002000260FF001FEC0B142F60A
:101CC000D72042F6383111A4C0F20300C0F203015C
:101CD00040F2CB320223009401F01EF9EE604FF087
:101CE000FF34286808B1FFF763FB204606B070BDDB
:101CF0000BA10A2002F046FE0024F2E7444D2053D7
:101D000074617274204661696C656400444D2053AF
:101D10007562736372696265204661696C6564000F
:101D20007B226465766964223A307D00494F545FB6
:101D30004C696E6B6B69745F436F6E6E65637400A4
:101D4000B0B582B0012826D80C4621B3012840D076
:101D500080BB41F60C55C2F20005A868C8BB012043
:101D6000A8602046FFF79CFB04F11500FFF7B1FBCC
:101D700004F15600FFF762FB04F17700FFF777FBF1
:101D8000FFF7B6FA286040B30FF0DCFBB8B3286861
:101D9000FFF7BAFA30E042F6D72042F6153142F6A4
:101DA0002635C0F20300C0F2030140F2A642C0F2A1
:101DB00003050AE042F6D72042F615311AA5C0F213
:101DC0000300C0F2030140F2BB420223009501F080
:101DD000A3F84FF0FF3002B0B0BD42F6D72042F674
:101DE0008B34C0F2030009A140F28232C0F2030436
:101DF0000223009401F090F80020A860E9E705F1C3
:101E00001000C5E904000020E5E700BF5F696F74BA
:101E1000785F6C696E6B6B69745F6D61737465720A
:101E20005F6F70656E000000556E6B6E6F776E2091
:101E30004465766963652054797065002DE9F04149
:101E400082B0002824D40F46102921D241F60C5824
:101E5000C2F20008D8F808004FF0FF3500285ED025
:101E6000D8F80C0000285AD0D8F800001C461646B6
:101E700008B1FFF773FAF81F05281ED84FF0FF3599
:101E8000DFE800F0034830353A430FF045FC40E00E
:101E900042F6D72042F6683142F62637C0F20300F8
:101EA000C0F2030140F20662C0F20307022300976A
:101EB00001F032F84FF0FF3531E042F6D72042F61C
:101EC000683142F6E327C0F20300C0F2030140F29A
:101ED0002F62C0F203070223009701F01DF84FF0B4
:101EE000FF3517E0304621460FF001FB11E0304688
:101EF00021460FF079FA0CE042F2EC720AA00CA134
:101F0000C0F203020FF06DFA03E0304621460FF0F5
:101F1000F1FA0546D8F8000008B1FFF749FA28465B
:101F200002B0BDE8F08100BF70726F647563740029
:101F300066696C65000000002DE9F04381B000285F
:101F40003BD40D46102938D241F60C59C2F2000993
:101F50000746D9F808004FF0FF34002841D0D9F8DF
:101F60000C0000283DD0D9F800009846164608B16C
:101F7000FFF7F4F9062D38D84FF0FF34DFE805F00D
:101F8000044A545E68686800002E68D0B8F1000FFB
:101F900065DD3846314642460FF072FB4CF6A4210F
:101FA000C2F2000109680446012951D149A200206A
:101FB0000021012325F054FE4AE042F6D72042F6E4
:101FC000553142F62637C0F20300C0F2030140F259
:101FD0008152C0F203070223009700F09DFF4FF0EB
:101FE000FF34204601B0BDE8F08342F6D72042F628
:101FF000553142F6E327C0F20300C0F2030140F27C
:10200000F752C0F203070223009700F085FF4FF05C
:10201000FF341DE076B3B8F1000F2BDD38463146B2
:1020200042460FF010FA12E07EB3B8F1000F2CDD3B
:102030003846314642460FF0DAF908E086B3B8F187
:10204000000F2DDD3846314642460FF03DFB044679
:10205000D9F800000028C4D0FFF7AAF9C1E742F67A
:10206000D72042F65531C0F20300C0F2030140F21E
:102070008E521FE042F6D72042F65531C0F20300DF
:10208000C0F203014FF4B66214E042F6D72042F6E4
:102090005531C0F20300C0F2030140F2B95209E029
:1020A00042F6D72042F65531C0F20300C0F20301D8
:1020B00040F2C35242F62637C0F2030702230097CC
:1020C00000F02AFFD9F8000000283FF488AFFFF79E
:1020D0006FF984E7340000002DE9F04782B0002852
:1020E0002DD40F4659B31546012A28DB984633B341
:1020F000DDF82890B9F1000F21DD41F60C5AC2F24B
:10210000000A0646DAF808004FF0FF3440B3DAF868
:102110000C0028B3DAF8000008B1FFF71FF93046C9
:1021200039462A464346CDF800900FF041FADAF8D6
:1021300000100446A1B10846FFF73AF910E042F654
:10214000D72042F62637C0F2030007A140F23F62D3
:10215000C0F203070223009700F0DEFE4FF0FF34C9
:10216000204602B0BDE8F087494F545F4C696E6B62
:102170006B69745F547269676765724576656E74E2
:102180000000000080B582B000280EDD41F60C5141
:10219000C2F200018A68C2B1C968B1B10FF0D4FBC4
:1021A00002B0BDE880400FF07BB942F6D72042F67E
:1021B000263CC0F2030006A14FF49D62C0F2030C5E
:1021C0000223CDF800C000F0A7FE02B080BD00BF22
:1021D000494F545F4C696E6B6B69745F5969656CEC
:1021E000640000002DE9F04FCFB004AE0446304645
:1021F0003521FEF704F941F62859C2F20009D9F851
:102200000010002003900290A1B142F6430042F674
:10221000EB0142F66007C0F20300C0F203014FF485
:10222000BD72C0F203070223009700F075FED9F8D3
:1022300000702DE003A90120FFF732FC02A9052060
:10224000FFF72EFC20AD2846B821FEF7D8F8284627
:10225000FFF72AF805F156073846FEF7C8FF9DF844
:10226000800010B19DF89400B0B142F6430042F6F0
:10227000EB0142F62707C0F20300C0F203014FF45E
:10228000C572C0F203070223009700F045FE002745
:1022900038464FB0BDE8F08F9DF8D60010B19DF8DC
:1022A000F60070B142F6430042F6EB0142F2ED77E0
:1022B000C0F20300C0F203014FF4C772C0F203077B
:1022C000E1E705F17700FEF7A3FF9DF8F70010B1F5
:1022D0009DF8370170B142F6430042F6EB0142F639
:1022E0000907C0F20300C0F2030140F2A912C0F2D4
:1022F0000307C8E741F6C0280398C2F2000820A9E6
:10230000424600F08FFBB0F1FF3F40F3928020ADDA
:102310002846FEF7B3F8024630462946FEF756F83F
:102320003046FEF7ABF82E2131543046FEF7A6F8C2
:1023300035183846FEF7A2F8024628463946FEF719
:1023400045F854B1676947B1AEA13846FEF76EF85B
:102350000346002818BF012301E00023002708F1ED
:10236000820604A930463A4604F01EFA00284FF0CF
:1023700000077FF48DAF12A82021FEF740F84FF43C
:10238000FA601A904EF660201B904FF48060002C8B
:102390008DF86470CDE91C001E971F975CD06068B3
:1023A00008B1017819B941F6C020C2F200002188B5
:1023B0001390A068B8F88020002918BF0A46ADF82D
:1023C000482008B1017801B93046E168149009B19C
:1023D000087808B908F5A5712069159108B1017848
:1023E00009B908F5C570216A41F29413A1F5FA7292
:1023F0009A42169098BF1A91207F47F230510128D7
:1024000098BF8DF86400606A4DF65022411AC0F200
:102410001102914298BF1B90E06A00B11D90A06A22
:1024200000B11C90206B00B11E90606B00B31F9038
:102430001EE0054642F6FE00C0F20300009042F6A0
:10244000430042F6EB01C0F20300C0F2030140F288
:10245000B7120223019518E7B8F88000CDE913867A
:10246000ADF8480008F5A570159008F5C5701690F0
:1024700012A82CF0A1FE00284E9000F0A180834607
:102480002CF0C2FC10F12C0118BF002840F0A780EE
:1024900041F62C58C2F20008D8F80000002847D0B6
:1024A000D8F80400FEF75AFFD8F80C0008F1080726
:1024B000B8421BD04FF0000AD0E9001605464E6026
:1024C000316050E9033455F8101D50F8042C58467B
:1024D00000942DF033F92868FEF787FE2846C5F8EA
:1024E00000A0FEF782FEBE423046E5D1D8F80400D7
:1024F000FEF75EFFD8F80C50BD420FD00026D5E99C
:1025000000044460206055F8100DFEF76EFE28466A
:102510002E60FEF76AFEBC422546F0D1D8F80400D2
:1025200008B1FEF7F1FE0020C8E90000C8E902008A
:1025300042F2ED60C0F2000010F09CFA584610F034
:1025400097FA68B142F6430042F6D40131A7C0F2CF
:102550000300C0F20301FE220223009700F0DCFC1E
:10256000584610F0CFF870B142F6430042F6D4015D
:102570002EA7C0F20300C0F203014FF483720223BE
:10258000009700F0C9FC584610F086F970B142F689
:10259000430042F6D4012CA7C0F20300C0F20301AD
:1025A0004FF488720223009700F0B6FC4E98C9F8E9
:1025B000000010200FF0D2F900B180474E9F67E66F
:1025C00042F6430042F6EB0142F6B107C0F20300C7
:1025D000C0F2030140F25722C0F2030753E642F66D
:1025E000430042F6EB0121A7C0F20300C0F2030151
:1025F00040F25E220223009700F08EFC4EA82CF0E1
:10260000D7FF44E661757468747970653D6964321A
:10261000000000006661696C656420746F2072655B
:10262000706F7274206D6964000000006661696CEF
:10263000656420746F207265706F727420646576B3
:10264000696E666F000000006661696C65642074E5
:102650006F207265706F7274206669726D77617237
:10266000652076657273696F6E0000007772617025
:102670007065725F6D7174745F636F6E6E656374A5
:10268000206661696C65640010B582B041F628541B
:10269000C2F2000420B1016800220191026001E051
:1026A0002168019129B101A82CF082FF002020604F
:1026B00010E042F6430042F6A104C0F2030006A176
:1026C00040F27E22C0F203040223009400F024FCB6
:1026D0006FF0010002B010BD494F545F4D5154548A
:1026E0005F44657374726F790000000080B586B036
:1026F000844641F62850C2F200000068BCF1000F89
:1027000018BF604681B378B391F800C0BCF1000FE8
:102710002AD0DDF820C04FF0000ECDE901EECDF853
:1027200010E08DF8062001AA8DF808E08DF807E08A
:102730000593CDF80CC02CF07BFEB0F1FF3F28DCF8
:1027400042F6430042F648010FF24C0CC0F203007F
:10275000C0F203014FF446720223CDF800C000F02E
:10276000DBFB4FF0FF3014E042F6430042F6480135
:1027700042F6C90CC0F20300C0F2030140F2093274
:10278000C0F2030C0223CDF800C000F0C5FB6FF0CF
:10279000010006B080BD00BF494F545F4D515454F5
:1027A0005F5075626C697368206661696C65640A64
:1027B0000000000080B582B0844641F62850C2F285
:1027C00000000068BCF1000F18BF604610B369B18B
:1027D00063B191F800C0BCF1000F07D0022A88BF96
:1027E000002202B0BDE880402CF0A8BF42F64300B2
:1027F00042F6C90CC0F203000CA140F2A722C0F2BD
:10280000030C0223CDF800C000F086FB6FF001003E
:1028100002B080BDDDF810C0084611461A46634676
:1028200002B0BDE880400FF0CBBD00BF494F545F00
:102830004D5154545F537562736372696265000051
:1028400010B582B0864641F62850C2F20000DDF88D
:1028500010C00068BEF1000F18BF704620B3059C81
:1028600042F2107E7445B8BFA64651B14BB10C7808
:102870003CB1022A88BF0022CDE900CE2DF00EF92E
:1028800010E042F6430042F6C904C0F203000BA177
:102890004FF43472C0F203040223009400F03CFBB6
:1028A0006FF0010002B010BD084611461A4663469B
:1028B00002B0BDE810400FF083BD00BF494F545F28
:1028C0004D5154545F5375627363726962655F530F
:1028D000796E630080B582B0024641F62850C2F29C
:1028E00000000068002A18BF104639B130B10A78DC
:1028F00022B102B0BDE880402DF074B942F6430029
:1029000042F6C90CC0F2030006A140F2ED22C0F26B
:10291000030C0223CDF800C000F0FEFA6FF00100B6
:1029200002B080BD494F545F4D5154545F556E7392
:1029300075627363726962650000000041F6285297
:10294000C2F200021268002808BF10462DF0A4BA97
:102950000146062804DB0FA000220523FEF752BD26
:1029600040F28C2202A0C2F200029160FEF74ABD42
:102970005B7072745D206C6F67206C6576656C208F
:102980007365742061733A205B202564205D0D0A15
:1029900000000000496E76616C696420696E707594
:1029A00074206C6576656C3A202564206F75742000
:1029B0006F66205B25642C2025645D0070B50E4693
:1029C000014600286FF0010018BF002E00D170BD35
:1029D0001546002AFBD008461C46FDF74FFD14287B
:1029E00009D83046FDF74AFD202804D82846FDF7CF
:1029F00045FD402802D96FF0010070BD002C4FF05A
:102A00000000E4D041F6F44141F6E442C2F2000194
:102A1000C2F20002C1E90002C1E90222C1E90422B6
:102A2000216070BD2DE9F04790B002AC0D4607461D
:102A3000204635219146FDF7E2FC052F4FF0FF3A85
:102A40002ED86DB34FF6B23A48464FF4E671CFF642
:102A5000FF7AFDF7D4FC2846FDF710FD024620461C
:102A60002946FDF7B3FC2046FDF708FD2E21215431
:102A70002046FDF703FD05F1560826184046FDF7F0
:102A8000FDFC024630464146FDF7A0FC09F18200FC
:102A900021460022002303F087FE28B10AF1010A33
:102AA000504610B0BDE8F08709F5C57420464121B5
:102AB000FDF7A5FC05F1770302A841462A460094DC
:102AC00001F0B4FE002819D4052F19D140F260247A
:102AD000C2F20004606948B3FDF7D0FC01304FF644
:102AE000807108421FD148468021FDF788FC646947
:102AF0002046FDF7C3FC0246484638E08246CFE751
:102B00002846FDF7BBFC40F26026C2F2000656F8EC
:102B1000271004460846FDF7B1FC204402304FF66A
:102B20008071084205D00AF1020AB9E76FF48A6A97
:102B3000B6E748468021FDF762FC2846FDF79EFC7B
:102B4000024648462946FDF741FC4846FDF796FCFB
:102B50002E2109F800104846FDF790FC56F8274052
:102B600009EB00062046FDF789FC02463046214667
:102B7000FDF72CFC99F8000068B109F1010100BFD4
:102B8000A0F14102192A9CBF203001F8010C11F874
:102B9000010B0028F4D11CA0494620F0FFFA404662
:102BA000FDF76CFC04462846FDF768FC2044023023
:102BB0004FF6C07108427FF473AF09F5A574204643
:102BC0004021FDF71CFC4046FDF758FC024620461C
:102BD0004146FDF7FBFB2046FDF750FC2621215422
:102BE0002046FDF74BFC04442846FDF747FC02460F
:102BF00020462946FDF7EAFB40F25B704FF0000AE1
:102C0000A9F880004CE700BF686F7374206E616D97
:102C1000653A25730D0A00002DE9F04F97B00D4677
:102C2000064612A814211446FDF7E9FB02AF384608
:102C30004021FDF7E4FB59A2384640213346CDE957
:102C40000044FEF761FC42F24D6045F22B71C0F288
:102C50000300C0F20301FEF7D5FB3846FDF70EFC7A
:102C600004280DD0002452A702AE00BF3846FEF75C
:102C7000C9FB30460134FDF701FC04388442F5D32A
:102C800042F24D66C0F2030645F22B71C0F2030119
:102C90003046FEF7B7FB42F2B650C0F20300FEF733
:102CA000B1FB02A93046FEF7ADFB42F2B45042F24E
:102CB000C951C0F20300C0F20301FEF7A3FB019C5F
:102CC00012AE012C5CDB43F63B17A4F1010B4FF075
:102CD0000009C0F203074FF0000800BF19F00F0A07
:102CE00006D109EB050133A0FEF78CFB08F10808BB
:102CF00015F8091032A0FEF785FB5FEAC97003D111
:102D000008F1020805E000BF3846FEF77BFB08F13A
:102D1000030815F8093042F21062A3F1200106EB16
:102D20000A005F2928BF2E230221C0F20302FEF70A
:102D3000EBFBD94509F1010918BF19F00F001DD1AE
:102D4000B8F12F0F08DCC8F1300400263846FEF732
:102D500059FB0136A642F9DB12AE1BA03146FEF745
:102D600051FB42F2B650C0F20300FEF74BFB304677
:102D70001421FDF744FB019C4FF00008A145ADD1A3
:102D800042F2B45042F2C951C0F20300C0F2030152
:102D9000FEF738FB002017B0BDE8F08F7C202573CC
:102DA0003A20286C656E3D256429207C0D0A0000C0
:102DB0002D0000007C20253038583A20000000000B
:102DC00025303258000000002025730010B55FEA5E
:102DD000C17C03D10229A8BF012B00DA10BD4FF03E
:102DE000FF3C0CEB510CA3F1010E0130F44538BF50
:102DF0004B0800BF10F801ECAEF1300C5FFA8CF11B
:102E00000A2910D3AEF16101C9B2052902D8AEF189
:102E1000570C08E0AEF14101C9B24FF0000C062991
:102E200038BFAEF1370C90F800E0AEF13001CCB213
:102E30000A2C10D3AEF16101C9B2052902D8AEF156
:102E4000570108E0AEF14101C9B206294FF0000177
:102E500038BFAEF1370141EA0C11013B02F8011B0A
:102E600000F1020008BF10BDC4E700002DE9F043E7
:102E700081B0174640F28C22C2F200029268BA4238
:102E8000BCBF01B0BDE8F083054640F29830C2F205
:102E900000000E4650F8272042F24B6042F2B95132
:102EA000DDE90898C0F20300C0F203011C46FEF7FA
:102EB000A9FA41F60850C0F2030050F8271042F278
:102EC000BB50C0F203002A463346FEF79BFA0CA023
:102ED00021464A464346FEF795FA20464946424671
:102EE000FFF79AFE42F24D6042F21B61C0F203000E
:102EF000C0F2030101B0BDE8F043FEF783BA00BFA2
:102F000048455844554D5020257320402025705B7E
:102F100025645D0D0A00000080B584B0DDF818C09E
:102F200007A8039003A8CDE900C000F003F804B09F
:102F300080BD00002DE9F04381B0002B66D440F243
:102F40008C27C2F20007B8681E4698425EDB40F24A
:102F50009830C2F2000014460D4650F8262042F286
:102F60004B6042F2B951DDE90889C0F20300C0F2BA
:102F70000301FEF747FA41F60850C0F2030050F88B
:102F8000261042F2BB50C0F203002A462346FEF749
:102F900039FA07F10C0420464FF48071FDF72FFA3F
:102FA000D9F8003020464FF480714246FEF775FD97
:102FB00006462046FDF762FA054642F24D60C0F231
:102FC00003002146FEF71EFAFF2E01DCFF2D02D181
:102FD00010A0FEF717FA2046FDF750FA204410F82B
:102FE000010C0A2805D042F2B650C0F20300FEF7E9
:102FF00009FA42F24D6042F21B61C0F20300C0F2D6
:10300000030101B0BDE8F043FEF7FCB901B0BDE833
:10301000F08300BF202E2E2E0000000070B582B07D
:1030200004680546A07DB0B194F84E11814212D3D8
:10303000287C09280CD125A01CF0B8FA2BA01CF084
:103040000EFD092084F82D0032A1204611F0A6FAC9
:10305000002084F84E01287C092835D1D4F8E000FE
:1030600094F84F2100BA0190501C84F84F010426B7
:1030700001AB2846092100960CF042FD94F84E0160
:10308000297C0130092984F84E011DD194F82E00C5
:10309000C00644BF24A01DF01BFB43F25516C0F22E
:1030A00000063046294625F041FC607D4FF47A71D8
:1030B00000FB01F031462A4625F054FB94F82E001F
:1030C00040F0100084F82E0002B070BD4E6F2072E8
:1030D0006573706F6E736520746F2025642065635F
:1030E000686F2D72657175657374730053657269CD
:1030F000616C206C696E6B20617070656172732009
:10310000746F20626520646973636F6E6E656374AB
:1031100065642E0050656572206E6F742072657351
:10312000706F6E64696E6700617373657274696F46
:103130006E206C63705F6563686F5F74696D657244
:103140005F72756E6E696E673D3D30206661696CB9
:1031500065640000016891F82E20D30658BF7047BF
:1031600002F0EF0281F82E20FFF758BF70B584B04F
:10317000A0B10446D0F8D40004F16805FEF7EEF8DB
:10318000284600F04FFC00F0C1F90146204601F04E
:10319000D3F938B1D4F8D400FEF70AF94FF0FF3074
:1031A00004B070BD2169606A2A4600F0ABFB054699
:1031B00000282BDD03AE30460FF062FCA1683046DC
:1031C0002BF02BF9616A20462A4633460FF0C2F8ED
:1031D000D0B342F6430042F6B47122A6C0F2030017
:1031E000C0F203014FF4E67202230096FFF794FE4B
:1031F000606A20B1FDF7F9FF002060622061D4F819
:10320000D400FEF7D5F86FF00D00C9E71CA00090C0
:1032100042F6430042F6B471C0F20300C0F203016B
:103220004FF4E17202230195FFF776FE606A20B148
:10323000FDF7DBFF002060622061D4F8D400FEF7C8
:10324000B7F86FF01D00ABE7606A20B1FDF7CDFF66
:10325000002060622061D4F8D400FEF7A9F80020B5
:103260009EE700BF73656E6420636F6E6E65637466
:10327000207061636B6574206661696C6564000031
:1032800053657269616C697A6520636F6E6E656300
:1032900074207061636B6574206661696C65642C71
:1032A000206C656E203D20256400000070B582B062
:1032B000064601A814460D4601931EF061FAC0F3BC
:1032C000C0012970010901983170694600F0CEF8FB
:1032D000DDE90021022A0144019104DB01A81EF06E
:1032E00055FA2080012002B070BD70B582B005464D
:1032F00001A80C4601921EF043FA00F0F0002028CD
:1033000015D10198694600F0B1F8DDE90021022AE3
:10331000014401910CDB01AE30461EF031FAC009C8
:10332000287030461EF02CFA2070012000E00020AA
:1033300002B070BD2DE9F04182B00D460B990446F4
:10334000002601A898461746019100961EF018FA2B
:1033500000F0F00130292BD1C0F3C0012170C0F37F
:103360004101089C296000F001010198397069460B
:1033700000F07CF80199064608440099019047182E
:1033800001A920463A461EF009FA88B10199781A37
:103390000ED42A680A9C099D012A06DB01A81EF0AA
:1033A000F5F90199A8F80000781A01262060296033
:1033B000304602B0BDE8F0812DE9F04182B00E4602
:1033C0000899804601A81C46154601911EF0D8F9BF
:1033D00000F0F00090282AD10198694600F046F8E4
:1033E000DDE9001202290244019223DB01A85718EB
:1033F0001EF0CCF9A8F8000001980021B84229601D
:1034000017D2012E10DB0DF1040800BF40461EF05C
:10341000B7F92968019B4A1CBB422A6044F8210085
:1034200007D22868B042F1DB4FF0FF3002E0002005
:1034300000E0012002B0BDE8F08180B582B0944682
:10344000024600200B468DF807008DF806000DF1AE
:1034500007000DF10601CDF800C0FFF727FF9DF82A
:1034600007100B2908BF012002B080BD70B540F6DF
:10347000D41CC2F2000C002301220024CCF800006E
:103480000B6000BF042C04F1010E0DD0044414F9AC
:10349000015B05F07F0602FB0633CCF80040D20149
:1034A000002D74460B60EDD4704670BD002200BF45
:1034B000CB1701EB536C7F292CF07F03A1EB0303A7
:1034C0004FEAEC11C8BF43F08003835402F10102BC
:1034D000EEDC1046704770B505680C4625B12846ED
:1034E000FCF7CCFF064601E0D0E901652046FCF779
:1034F000C5FF86421CBF002070BD284621463246CB
:10350000FCF7D1FFB0FA80F0400970BD7F2801DAE6
:1035100002210DE043F6FF71884201DA032107E042
:103520004FF6FE72C0F21F0205219042B8BF04217F
:1035300008447047F0B583B090B302AF04463846F4
:1035400016460D460FF09CFAA16838462AF065FF32
:10355000D4F8D400FDF702FF042E24D12046002128
:1035600000F0EAFF002821D42169606AAFB204228A
:103570000023009700F09CF9616A002819DD0246DB
:1035800002AB20460EF0E6FE0146606AD9B120B1DA
:10359000FDF72BFE0020606220616FF00D0519E041
:1035A0004FF0FF351AE06FF00C0513E04FF0FF35D8
:1035B00010E029B10846FDF718FE00206062206186
:1035C0006FF0120506E04FF0000518B1FDF70DFE93
:1035D00065622561D4F8D400FDF7EAFE284603B001
:1035E000F0BD00002DE9F04F89B000284FF0FF3604
:1035F00000F011810F46002900F00D811546002AC8
:1036000000F0098108AE834630460FF039FADBF846
:10361000081030462AF001FFDBF8D000FDF79EFECF
:10362000DBF8D400FDF79AFE3846FCF727FFA968BF
:103630000144584600F080FF00282BD42A79DBF89B
:103640001010DBF82400AB782C69D5F808C02E8860
:103650004FF0000E8DE8C4400022CDE904E4CDF81F
:1036600018C000F01FFA8246002816DDA878C8B3FB
:10367000DBF81000504538D242F6430042F638716C
:1036800084A7C0F20300C0F2030140F24D320223CE
:10369000009745E04FF0FF36B5E0DBF8100043F24D
:1036A0002A01C0F20301AF68CDE9001A029042F688
:1036B000430042F61771C0F20300C0F2030140F666
:1036C000E91202230397FFF727FCDBF8240030B14F
:1036D000FDF78BFD0020CBF82400CBF810006FF035
:1036E000140690E04FF0000860E0B5F800900BF190
:1036F000C0074FF0FF36384640680136B842FBD16C
:10370000142E2ED355A0009042F6430042F6387195
:10371000C0F20300C0F2030140F25A3202230196C4
:10372000FFF7FAFB42F6430042F6177142F6B9374B
:10373000C0F20300C0F2030140F6F612C0F2030724
:1037400002230097FFF7E8FBDBF8240030B1FDF718
:103750004CFD0020CBF82400CBF810006FF02906B8
:1037600051E00AF11C00FDF7C1FD002857D080464A
:103770000020C8F804004046A8F80890C8F80CA03B
:103780000FF094F9DBF8241008F11C005246C8F839
:103790001000FCF71BFE08F11400C8F81400DBF859
:1037A000C010C8E905174860CBF8C000DBF824104A
:1037B00008AB584652460EF0CDFDA8B1A87830B1FE
:1037C000D8E90501416008604046FDF70EFDDBF8D1
:1037D000240030B1FDF709FD0020CBF82400CBF820
:1037E00010006FF00D060EE0286904213E220EF055
:1037F000CFF8DBF82400002628B1FDF7F6FCCBF863
:103800002460CBF81060DBF8D400FDF7D1FDDBF8C5
:10381000D000FDF7CDFD304609B0BDE8F08F42F68F
:10382000430042F6387104A7C0F20300C0F203015E
:103830004FF458722BE700BF72756E20696F747871
:103840005F6D656D6F72795F6D616C6C6F63206920
:1038500073206572726F7221000000006D6F7265D7
:10386000207468616E20257520656C656D656E74C9
:103870007320696E2072657075626C697368206C64
:103880006973742E204C697374206F766572666C50
:103890006F77210074686520706172616D206F66BA
:1038A000206C656E206973206572726F7221000052
:1038B00070B582B00429019002DA6FF001001EE0B9
:1038C0000446901FB0FA80F04009400040EA021020
:1038D00003F0010140EAC10001AE069DC1B23046CD
:1038E0002CF0E6FC01980221FFF7E0FD0199084465
:1038F0000190304629462CF0E1FC0198001B02B0F3
:1039000070BD00002DE9F04182B080460190104664
:1039100015460E4600F086F80746FFF7F7FDB04261
:1039200002DD6FF0010071E001AE304610212CF095
:10393000BFFC01983946FFF7B9FD01992F7A084479
:10394000019034A035A1042F08BF014630462CF069
:1039500093FC042F18BF0327304639462CF0A8FCEF
:10396000A87EE97E002818BF0120002918BF012188
:103970004FEA810141EA40040AD095F83D0095F8EC
:103980003C1060F3C404002918BF012144EA41142B
:10399000286C08B9A86C08B164F07F04E86C08B919
:1039A000686D08B144F04004E6B201AF38463146D4
:1039B0002CF07EFC298B38462CF080FC05F10C03A2
:1039C0000ECB38462CF088FCE87E60B105F124036C
:1039D0000ECB01AF38462CF07FFC05F130030ECB47
:1039E00038462CF079FC200605D505F140030ECBB6
:1039F00001A82CF071FC700605D505F14C030ECB27
:103A000001A82CF069FC0198A0EB080002B0BDE809
:103A1000F08100BF4D515454000000004D514973D6
:103A20006470000070B50446D4E90412057AC068D9
:103A300000F053F90221042D08BF0C21E27E032D72
:103A400008BF0E2101EB000572B104F1240207CA80
:103A500000F043F9D4E90C31A26B0646184600F099
:103A60003CF9A9190844051D206C08B1A26C01E0BD
:103A7000A26C22B1616C00F030F92844851CE06C26
:103A800008B1626D01E0626D22B1216D00F025F98F
:103A90002844851C284670BD0E2200F007B90C2270
:103AA00000F004B92DE9F04F81B0DDE90C9B15461B
:103AB0000E9A88460446109F0090484659461E4676
:103AC00000F00BF9384400F1020A002EC8BF00F1E3
:103AD000040A5046FFF71AFD404502DD6FF0010071
:103AE0002CE00A9806F0030100F0010065F3C30022
:103AF00040EA41006D46DDF83C8000F13001284687
:103B00002CF0D6FB00985146FFF7D0FC00990E9B95
:103B100008440090284649465A462CF0DDFB012E09
:103B200003DB0B9968462CF0C9FB109D00984146B9
:103B30002A46FCF74BFC00982844001B01B0BDE866
:103B4000F08F00002DE9F04782B0DDE90A580C46FD
:103B500082460190284641469946164600F038F8BC
:103B60000746FFF7D3FCA04202DD6FF001002CE016
:103B7000822040EAC60001AC00F08A0120462CF009
:103B800097FB01983946FFF791FC01990844019091
:103B9000204649462CF092FB012D13DB0C9C08F1CA
:103BA000040701AED7E9002357F8041C30462CF077
:103BB00093FB14F8041B30462CF07AFB013D07F10F
:103BC0000C07EFD10198A0EB0A0002B0BDE8F08726
:103BD00070B501280FDB04460E1D0225D6E9001240
:103BE00056F8040C00F079F82844C51C013C06F195
:103BF0000C06F3D100E00225284670BD2DE9F04700
:103C000082B0DDE90A580C468246019028464146BA
:103C10009946164600F034F80746FFF777FCA042B5
:103C200002DD6FF0010027E0A22040EAC60001ACEF
:103C300000F0AA0120462CF03BFB01983946FFF723
:103C400035FC019908440190204649462CF036FB8A
:103C5000012D0EDB08F1040401AE00BFD4E90023FE
:103C600054F8041C30462CF037FB013D04F10C04E1
:103C7000F4D10198A0EB0A0002B0BDE8F087000083
:103C800070B501280FDB04460E1D0225D6E900128F
:103C900056F8040C00F021F82844851C013C06F17C
:103CA0000C06F3D100E00225284670BD10B582B0A5
:103CB0000229019002DA6FF001000CE004461001C5
:103CC000C1B201A82CF0F4FA01980021FFF7EEFB35
:103CD00001990844001B02B010BD00280CBF084623
:103CE000FCF7CCBB70470000F0B581B046F2301550
:103CF000C4F200052E8A41F680270024C2F2000794
:103D000026FA04F0C00704D057F8241009B1204661
:103D100088470134102CF3D12E8001B0F0BD80B55E
:103D20000122EFF3108182F3108841F63C52C2F277
:103D3000000232F810308BB94EF2FE3C41F20453CF
:103D4000C4F2010CC0F20303BCF800E033F81030F9
:103D500043EA0E0343F42543ACF8003032F8103048
:103D6000013322F8103081F3108880BD0122EFF377
:103D7000108182F3108841F63C52C2F2000232F800
:103D8000103023B132F81030013B22F8103032F8F5
:103D900010208AB94EF2FE3CC4F2010C41F20452EA
:103DA000BCF80030C0F2030232F8100043F42542A0
:103DB00022EA0000ACF8000081F310887047022866
:103DC00018BF704741F64430C0F20300416841F625
:103DD000EC40C2F2000000F00CB8014600220020C6
:103DE0000A60704740F60051C4F2080100200A70D2
:103DF000704780B545F25422C5F24F020260084672
:103E00001DF032F9002080BD70B584B068460126EF
:103E1000039002A814460D46CDE90021ADF80860D4
:103E200003F046F941F64450EFF3108186F3108811
:103E3000C2F2000002683AB940F60352C4F2080226
:103E40000023137040231370026840F60003013210
:103E5000026081F31088E2034FEA1521C4F20803DF
:103E6000EAB20BD503EB811656F8225025F48035C3
:103E700046F8225024F4803546F8225003EB811195
:103E800041F82240EFF31081012282F3108802688A
:103E900012B10268013A0260006838B940F6035076
:103EA000C4F20800002202708022027081F31088A0
:103EB000002004B070BD4FF4FF5000EAD10004238D
:103EC000C4F20803C058C9B2C043000CC840012165
:103ED000814300201160704710B5C8B2012303FA76
:103EE00000F04FF4FF5303EAD1030C21B2F1010EAD
:103EF000C4F2080118BF8646012A18BF00205C588A
:103F0000012A43EA010C05D182B24FF6FF7040EA64
:103F10000E4003E04FEA0E42CFF6FF7044EA020182
:103F200001400020CCF8001010BD6FF03F0000EA07
:103F30009100C9B200EB810040F60001C4F2080113
:103F40004058C0F34001002011607047C8B20123FF
:103F500003FA00F083B2002A08BF03044FF4FF50B5
:103F600000EAD1010822C4F2080200208B507047F9
:103F700080B508461DF078F8002080BD80B54FF46C
:103F8000FF5000EAD10140F2000CC4F2080C51F8D5
:103F90000CE003EA020040EA0E0062EA030202407B
:103FA000002041F80C2080BD4FF4FF5000EAD10002
:103FB0000421C4F208014058010C00201180704710
:103FC00003EA020023EA020240EA02424FF4FF50F1
:103FD00000EAD1010C23C4F208030020CA50704744
:103FE0004FF4FF5000EAD1000421C4F20801415807
:103FF00000201180704703EA020023EA020240EA2F
:1040000002424FF4FF5000EAD1010823C4F2080332
:104010000020CA5070472DE9F0470A7848F20003A3
:10402000C4F2110303EB0223867803628B6B024612
:104030004362CB6B4FF00009C36226F003035E1CA2
:1040400086704E6880F80090C161C0F8289016B95B
:1040500043F002039370CF6A4EF2001C07F01F0674
:104060004FF00108CEF2000C08FA06F67B090CF1BD
:10407000800491F8285044F82360BFF34F8F46F234
:10408000003EC4F2000EBFF36F8F5EF8273041F69A
:10409000D85A23F480334EF827302B010CF54075A5
:1040A000EB554B69C2F2000A03F01F0008FA00F05A
:1040B0005E094AF827200F7C44F82600BFF34F8F93
:1040C000BFF36F8F5EF8230020F480304EF823009A
:1040D0003801E854C8694AF8232000F01F0608FA9E
:1040E00006F647090B7E44F82760BFF34F8FBFF3F6
:1040F0006F8F5EF820601B0126F480364EF820603A
:104100002B544AF82020486A91F8203000F01F060E
:1041100008FA06F6470944F82760BFF34F8FBFF34C
:104120006F8F5EF820401B0124F480344EF820404D
:104130002B544AF82020EFF3108088F3108844F2C3
:1041400004050B78C4F208054FF000442E6824FAE9
:1041500003F326EA03032B602B6880F31088106AB0
:1041600080F80290106A80F80490106A80F8099034
:10417000106A80F80A90106A80F80B90106AA0F814
:104180001A90087808FA00F340F2F930034202D09E
:10419000136A4024DC74136A06241C770B7808FA2F
:1041A00003F3034203D0106A4FF478438382D1E9CA
:1041B0000134C8684FEAC00040EA04102BB1032B59
:1041C00008BF40F04000F22300E0E223146A00261A
:1041D0002070106A02248371086C836904EA430426
:1041E000082B136A08BF0A245C73156AD0E90134EE
:1041F0002E720568DB0125F00105DBB2022D64F3A8
:1042000045130AD1146AFF25657000680228106AF8
:1042100008BF43F01003C37117E0146AE371C0686C
:10422000136A84785C7044781D7804F0030405F008
:10423000FC052C441C70C4789C74DC79007804F074
:10424000A30400F05C002044D8710020D369C2E9C7
:104250000300C2E90500086C5C6901785EF824304F
:1042600004F01F0523F480334EF82430012303FAB1
:1042700005F566090CF5C07444F826504CF8265034
:10428000D569ED6A5EF8256026F480364EF8256023
:1042900005F01F0603FA06F66D0944F825604CF890
:1042A0002560D569ED695EF8256026F480364EF804
:1042B000256005F01F0603FA06F66D0944F825602F
:1042C0004CF82560D5696D6A5EF8256005F01F071A
:1042D00026F48036BB406F094EF8256044F827303D
:1042E0004CF827301C23176A63F39F01B9704169AA
:1042F00044F65510C5F24330506000209160BDE88F
:10430000F087000000F022F8FCF768FFFEE780B5B8
:104310001EF00AFF22F001FABDE880401EF027BF20
:104320004EF22000C4F2010081794DF2E402C2F2A3
:10433000000252F821100068C0F3026021FA00F078
:1043400040F2A451C2F200010860704770B54EF609
:104350000850CEF200004FF47001C0F8801040F217
:104360000001C0F2000101600020FFF728FD02F00B
:10437000D7FD01200124FFF722FD4DF20010C2F20B
:10438000000080F30A8840F2E0404CF60441C2F29B
:104390000000C0F20001FCF732F840F2000046F2E3
:1043A000142140F2E042C2F20000C0F20301C0F268
:1043B0000002FCF70BF840F2C01540F2C010C0F24A
:1043C0000005C0F20000401BC11700EB9170811086
:1043D000012909DB2E46C8BF841000BF56F8040B24
:1043E00028448047013CF9D1FFF79AFF0320FFF7EB
:1043F00096FC40F610510020C4F208014FF6FF72FF
:1044000021F8102001300928FAD10320FFF7AEFC73
:104410000220FFF7D4FC02F001FE0020BDE870404E
:1044200002F0FABD4EF60C50BFF34F8FCEF20000F3
:104430000168042201F4E061C0F2FA521143016004
:10444000BFF34F8F00BFFDE7002804D090FAA0F023
:10445000B0FA80F0401C70470020704729B1026913
:104460000A4204BF4FF0FF30704742690123936056
:10447000FFF7F2BF70B582B000B30446806901F166
:104480000805A66A854288BF05462846FCF72EFF28
:10449000002E064615D0EEB130462946FBF7AFFF99
:1044A000E069A16A2A46A84238BF02463046FBF7B7
:1044B0008DFFA06AFCF799FEA66208E04FF0FF347A
:1044C0002BE0A662B6B130462946FBF798FFE561BE
:1044D000002422E04FF60A4442F6430042F65071AF
:1044E000CFF6FF740EA6C0F20300C0F203014FF432
:1044F000BC720EE04FF60A4442F6430042F6507199
:10450000CFF6FF7409A6C0F20300C0F203014FF416
:10451000C17202230096FEF7FFFC204602B070BD78
:104520007265616C6C6F63206572720063616C6CA4
:104530006F63206572720000B0B5B8B101F140053B
:1045400041690446406A8D4288BF0D4618B1FCF7A8
:104550004CFE002060622846FCF7C8FE606240B155
:104560002946FBF74CFF00202561B0BD4FF0FF301E
:10457000B0BD4FF60A40CFF6FF70B0BD70B5066C07
:1045800005463EB943F27A40C0F203001BA1BA22AD
:104590001DF0A2FBFBF71EFE044605F1140022F0FD
:1045A000C1F9D5E90012288A20F002004A606A6841
:1045B0002882116031692D60A9426D6008D072684F
:1045C00040F00100136828825D602B6015606A600E
:1045D00079B9706B90F8341001F00701022908D105
:1045E00021F01BFF2046FBF7F9FDBDE8704020F0ED
:1045F00021B92046BDE87040FBF7F0BD5F64656CF3
:10460000617965645F776F726B5F74696D656F75F3
:10461000745F68616E646C657200000070B582B092
:1046200009B3044608460D46FBF728FF064641F24B
:104630004820C0F20300FBF721FF864213D141F26C
:104640004821C0F2030128463246FBF72CFF002820
:104650004FF0000008D1019001A9012008F049FCA9
:104660000199084302D0002002B070BD204606F038
:1046700066FD4FF0FF30F7E72DE9F04F81B0894636
:1046800041F6BC41C2F20001CE6801F10805AE421C
:1046900025D090468246FBF7F1FE0746A6F180043E
:1046A0002046FBF7EBFEB84216D1204651463A466B
:1046B000FBF7F9FE80B9A6F16B0B5846FBF7DEFE5F
:1046C00004464846FBF7DAFE844205D1584649467F
:1046D0002246FBF7E8FE38B17668AE42DED14FF0F5
:1046E000FF3001B0BDE8F08FB8F1000F1CBFA6F19C
:1046F0008800C8F800000020F3E700002DE9F0472B
:104700009A4641F6BC43C2F20003DC6808339C427F
:1047100009D0DDE908980A9F54F8886C8E4206D0CB
:1047200064689C42F8D14FF0FF30BDE8F0873860F4
:1047300041F29F10C0F20300A4F18006C7E9011006
:104740003046FA6007F11005FBF798FE024628464E
:104750003146FBF73BFEA4F16B06304607F1250519
:10476000FBF78CFE024628463146FBF72FFE002061
:10477000C7E912A9C7F85080BDE8F0872DE9F043DA
:1047800081B041F6BC46C2F20006F76806F10805A2
:10479000AF420AD0DDE90884DDF8289057F8886C2C
:1047A000864205D07F68AF42F8D14FF0FF3022E05B
:1047B00041F29F10C0F20300A7F18005C9E9000390
:1047C0002846C4E9011209F10804FBF757FE024626
:1047D00020462946FBF7FAFDA7F16B05284609F1AB
:1047E0001D04FBF74BFE024620462946FBF7EEFD73
:1047F0000020C9F8408001B0BDE8F08370B50646DE
:1048000008200D46FCF772FD58B10446C0E900656A
:1048100006F005FD40B12046FCF7E7FC4FF0FF3005
:1048200070BD6FF0020070BD002070BD2DE9F04F2B
:10483000BFB004AC8B460746204620219A46164658
:10484000FBF7DDFD3846FBF719FE80465846FBF7BF
:1048500015FE05463046FBF711FE024608EB050043
:1048600010443B304FF6F8710840C72804D94FF682
:10487000B030CFF6FF7076E002960CAEDDF82091F6
:1048800006F10800C021CDF80CA09246FBF7B7FD59
:1048900047F26E40C6F249400D9046F66340C6F2BC
:1048A00069500C903046FBF7E9FD304439464246EA
:1048B000FBF78CFD3046FBF7E1FD30442BA10A22CB
:1048C000FBF784FD3046FBF7D9FD304459462A46B4
:1048D000FBF77CFD3046FBF7D1FD304426A10A22D0
:1048E000FBF774FD3046FBF7C9FD02993044524690
:1048F000FBF76CFD3046FBF7C1FD45F68071304497
:10490000C0F203010922FBF761FD3046FBF7B6FD5B
:1049100045F670713044C0F203010D22FBF756FDDD
:104920003046FBF7ABFD039F05463846FBF7A6FD77
:104930000346304629463A46009429F011FB42F2DC
:10494000A3510020C0F20301225C09EB40071309C8
:10495000CB5C02F00F0209F810308A5C013020288D
:104960007A70F1D100203FB0BDE8F08F64657669C0
:1049700063654E616D65000070726F647563744BA2
:10498000657900002DE9F04FADF5317D0C46002929
:10499000054600F0C3802046FBF770FD0146A0AB42
:1049A0002046002208F054FB18B10DF5317DBDE81A
:1049B000F08FA0AEA8AF0FF6741130460522002389
:1049C000009708F00EFB98AF0FF6681130460222F0
:1049D0000023009708F005FB90AF0FF65C113046FE
:1049E00005220023009708F0FCFA88AF0FF650115B
:1049F000304609220023009708F0F3FA80AF0FF643
:104A00004C11304607220023009708F0EAFA78AFED
:104A10000FF64011304603220023009708F0E1FA18
:104A200070AF0FF63411304604220023009708F0CF
:104A3000D8FA68AF0FF628113046072200230097F6
:104A400008F0CFFA60AF0FF62011304603220023A2
:104A5000009708F0C6FA58AF0FF61011304606223C
:104A60000023009708F0BDFA50AF0FF6081130464A
:104A700004220023009708F0B4FA48AF0FF6FC01B7
:104A800030460A220023009708F0ABFA40AF0FF639
:104A9000F801304604220023009708F0A2FA38AF4C
:104AA0000FF6EC01304607220023009708F099FA30
:104AB00030AF0FF6E401304608220023009708F0DB
:104AC00090FA28AF0FF6DC0130460A220023009747
:104AD00008F087FA20AF0FF6D801304607220023EE
:104AE000009708F07EFA18AF0FF6CC01304604228A
:104AF0000023009708F075FA10AF0FF6C401304696
:104B00000A220023009708F06CFA08AF0FF6BC01E8
:104B1000304603220023009708F063FAA5F10A004B
:104B200022284FD8DFE810F056002300230023008E
:104B300023006700AD00230023002300FD002300B5
:104B4000230023005B012300230023002300230014
:104B50002300230024007F012400240023002300DD
:104B60002300CD012300060237025B027D021CE711
:104B7000002C3FF41AAF989808287FF416AF70986D
:104B800008287FF412AF909808287FF40EAF809821
:104B9000402840F0A38282980128C0F29F82013011
:104BA000FCF7A4FB002800F0E88204468298411C30
:104BB0002046FBF724FCDDE981122046FBF706FCCA
:104BC000829D8DE2012D00F08182002D7FF4EDAEFB
:104BD00001207CE2002C3FF4E8AE909808287FF496
:104BE000E4AE0D200CF0BAFE00283FF4DEAE014624
:104BF00096988847D9E6002C3FF4D7AE90980828BD
:104C00007FF4D3AE809840287FF4CFAE82980130F5
:104C1000FCF76CFB002800F0848204468298411C5B
:104C20002046FBF7ECFBDDE981122046FBF7CEFBCB
:104C3000DDE9A90102F00EFF4CF6A425C2F2000541
:104C400040B9DDE9A90101222A600FF28472012333
:104C500023F006F806200CF081FE20B1034696985A
:104C6000829A214698472868012840F047820FF22F
:104C70006472002000210223002622F0F1FF2E6042
:104C80003CE20020002CCDE9060005903FF48DAEFB
:104C9000989810287FF489AE909808287FF485AE04
:104CA000809820287FF481AEDDE9790105AA0423EC
:104CB000FEF78CF88298059D0130FCF717FB002861
:104CC00000F0508204468298411C2046FBF797FB77
:104CD000DDE981122046FBF779FB07200CF03EFE50
:104CE000002800F00B8207469698829A07AE06AB22
:104CF00021460096B847069F002F00F0FF81079ECF
:104D0000012EC0F2FB81DDE99912002896984FF43C
:104D1000C87308BFC823CDE9007602950CF017FDD3
:104D2000D0E10020002CCDE9060005903FF43DAE17
:104D3000989810287FF439AE909808287FF435AE03
:104D4000889810287FF431AE809840287FF42DAEEB
:104D5000DDE9790105AA0423FEF738F88298DDF829
:104D600014800130FCF7C2FA002800F01A820446D1
:104D70008298411C2046FBF742FBDDE98112204668
:104D8000FBF724FB05200CF0E9FD002800F0B681BC
:104D9000DDE9891207469698829E07AB06ADCDE9FC
:104DA000015323460096B847069F002F00F0A681C6
:104DB000079E012EC0F2A281DDE99912DDE9895C2E
:104DC000002896984FF4C87308BFC823CDE9005C4B
:104DD000CDE90276CDF810800CF02DFD72E1002CAB
:104DE0003FF4E3AD909808287FF4DFAD8098102859
:104DF0007FF4DBAD829800EBD07044102046FCF7C6
:104E000075FA002800F098810546DDE981012A46FF
:104E10002346FDF7DBFF42F6F820C0F2030040F224
:104E20005111009573E0002C3FF4BFAD989808280D
:104E30007FF4BBAD709808287FF4B7AD9098082830
:104E40007FF4B3AD689810287FF4AFAD8098102838
:104E50007FF4ABAD6A980130FCF748FA002800F007
:104E6000AB8104466A98411C2046FBF7C8FADDE98D
:104E700069122046FBF7AAFA82980130FCF736FA4D
:104E8000002800F0268205468298411C2846FBF740
:104E9000B6FADDE981122846FBF798FA09200CF0F2
:104EA0005DFD50B16A9B074696989E99769A829EC0
:104EB000CDE9003523460296B8472046FCF795F920
:104EC00036E0002C3FF471AD909808287FF46DAD6A
:104ED000809810287FF469AD829800EBD070441060
:104EE0002046FCF703FA002800F0318121460546F0
:104EF000FBF785FADDE981012A462346FDF766FFC7
:104F000042F6F8200095C0F203004FF4B77142F664
:104F1000DA23C0F2030305220194FDF7A7FF042062
:104F20000CF01CFD20B1034696982946224698476E
:104F30002846E4E0002C3FF438AD309810287FF488
:104F400034AD289808287FF430AD209810287FF4DD
:104F50002CAD189810287FF428AD109810287FF4F5
:104F600024AD089810287FF420AD319C002C00F06F
:104F70003981329D6E1C3046FCF7B8F9002800F0EC
:104F8000318131468046FBF73AFA404621462A46AF
:104F9000FBF71CFA28E1002C3FF407AD38981028E5
:104FA0007FF403AD3A980130FCF7A0F900283FF4F4
:104FB000FCAC04463A98411C2046FBF720FADDE998
:104FC00039122046FBF702FA0E200CF0C7FC00282D
:104FD00000F0948002460020214690478EE0002C8D
:104FE0003FF4E3AC609810287FF4DFAC62980130A6
:104FF000FCF77CF9002800F0858004466298411C8B
:105000002046FBF7FCF9DDE961122046FBF7DEF9EB
:105010000A200CF0A3FC002870D0014620468847E7
:105020006CE00020002C079006903FF4BEAC9898EE
:1050300010287FF4BAAC909808287FF4B6AC889812
:1050400010287FF4B2AC589810287FF4AEAC80984A
:1050500040287FF4AAAC82980130FCF747F9002879
:1050600000F0B58004468298411C2046FBF7C7F942
:10507000DDE981122046FBF7A9F905200CF06EFC52
:10508000E0B3DDE9891207469698829E07AB06AD2C
:10509000CDE9015323460096B847069F77B3079E94
:1050A000012E2BDBDDE99912DDE9595C0028969889
:1050B0004FF4C87308BFC823CDE90276CDE9005C80
:1050C0000CF07BFB0698FCF790F817E003200CF03F
:1050D00045FC00283FF469AC804766E400240025C5
:1050E00008200CF03BFC30B1074696989E99769AC2
:1050F00023460095B847002C3FF457AC2046FCF7F8
:1051000074F852E442F6D72042F6F821C0F20300C8
:10511000C0F2030140F2832242F68B37C0F203074C
:1051200039E042F6D72042F6F821C0F20300C0F27F
:1051300003014FF4DD722AE042F6D72042F6F8214F
:10514000C0F20300C0F203014FF4A6721FE042F662
:10515000D72042F6F821C0F20300C0F203014FF459
:10516000B47214E042F6D72042F6F821C0F20300F0
:10517000C0F2030140F20B2209E042F6D72042F6CA
:10518000F821C0F20300C0F2030140F2362242F6D9
:105190007A37C0F2030702230097FDF7BDFEFFF741
:1051A00004BC42F6D72042F6F821C0F20300C0F258
:1051B000030140F29112AFE742F6D72042F6F82100
:1051C000C0F20300C0F203014FF41772A4E742F6E5
:1051D000D72042F6F821C0F20300C0F2030140F2EA
:1051E000A32299E74FF00008219C7CB1229D6E1C00
:1051F0003046FCF77BF848B131468146FBF7FFF8B3
:10520000484621462A46FBF7E1F801E04FF0000945
:10521000199C7CB11A9D6E1C3046FCF767F848B1AA
:1052200031468246FBF7EBF8504621462A46FBF70B
:10523000CDF801E04FF0000A119C7CB1129D6E1C6C
:105240003046FCF753F848B131468346FBF7D7F8B0
:10525000584621462A46FBF7B9F801E04FF0000B0B
:10526000099D7DB10A9E771C3846FCF73FF848B18E
:1052700039460446FBF7C3F8204629463246FBF779
:10528000A5F800E00024B8F1000F18BFB9F1000F35
:1052900005D0BAF1000F18BFBBF1000F2CD1B8F147
:1052A000000F1CBF4046FBF7A0FFB9F1000F1CBF69
:1052B0004846FBF79AFFBAF1000F1CBF5046FBF7B8
:1052C00094FFBBF1000F3FF416AF5846FBF78DFF7C
:1052D00011E742F6D72042F6F82142F68B37C0F2AA
:1052E0000300C0F203014FF41972C0F20307022356
:1052F0000097FDF711FE01E7002CD0D00F200CF035
:105300002DFB40B12E9A0646002041464B46CDE982
:1053100000AB0294B0474046FBF767FF4846FBF7F7
:1053200064FF5046FBF761FF5846CCE66D73676932
:105330006400000069640000646576696400000030
:105340007365727669636569640000007061796CE9
:105350006F61640063747800636F6465000000002F
:105360006576656E7469640075746300727270634B
:1053700069640000746F706F0000000070726F64E9
:105380007563744B6579000074696D6500000000F9
:1053900076657273696F6E00636F6E6669674964E4
:1053A00000000000636F6E66696753697A650000EC
:1053B00067657454797065007369676E000000005A
:1053C0007369676E4D6574686F64000075726C0078
:1053D00033000000350000002DE9F04F95B090B388
:1053E00015460246006840282DD157685FB39B469A
:1053F0004FF0FF304BB3012D27DB0E4629B3D168A8
:1054000019B394680020012C1490CDE91174139005
:1054100019DB38787B2816D10120022C139009DB88
:10542000012000BF395C202904D801308442139048
:10543000F8D101E0A04202D1601E139000E002DA30
:10544000395C7D2904D14FF0FF3015B0BDE8F08FF5
:10545000A0F101080DF1200A0DF144095046202168
:10546000FAF7CDFF68462021FAF7C9FF08F10100DD
:10547000A042139008DA00BF395C202904D801301B
:1054800084421390F8D101E0A04201D1601E139034
:105490005046494617F038FF0028D4D1DDE91110F5
:1054A000139A71B1824207DA8B5C202B04D8013247
:1054B00090421392F8D101E0824202D1421E13922F
:1054C00001E08242BFDA8B5C3A2BBCD101328242CE
:1054D000139207DA8B5C202B04D80132904213928E
:1054E000F8D101E0824201D1013813906846494663
:1054F00018F0AEF80028A6D1119F7FB1DDE91201A6
:10550000814207DA7A5C202A04D80131884213915B
:10551000F8D101E0814201D1013813900A98A842E4
:1055200005D1099831462A46FAF7BDFF60B1DDE999
:105530001248A045BFF687AF17F808002C284FF097
:10554000FF303FF48BAF80E7DDE905659DE88F0014
:10555000079C8BE88F00CBE90565CBF81C40002049
:1055600073E7B0B540F23865C2F20005286868B14B
:105570004068FBF73AFE2868002444600830FDF7D5
:1055800083F82868FBF731FE2C6001E06FF001041E
:105590002046B0BD2DE9F04FA7B00446002025906D
:1055A0001DA81521FAF72BFF14A82121FAF727FFD0
:1055B00003A84121FAF723FF40F23860C2F200004D
:1055C0000068002849D045681DA8FBF76DFE14A8A7
:1055D000FBF70DFE03A8FBF71BFE9DF874000028E7
:1055E0004FF0FF3000F08B809DF85010002900F044
:1055F00086800DF19808404602950DF041FA40462C
:10560000214628F00AFF42F6B92442F6C7760DF18A
:1056100074090DF1500A03AF25AD0FF2E80BC0F28B
:105620000304C0F2030600BF484651463A462B46E3
:10563000FDF7C4F9A0B120463146FD220223CDF882
:1056400000B0FDF769FC4FF4FA70FBF75BFF4046D2
:1056500028F0EEFE0028E7D00EE06FF001004EE0EB
:105660002598029E0188071D31808ECF06F1040C1B
:105670008CE88E004069B06141F65050C2F20000E3
:10568000006940F23865C2F2000510B12968496826
:10569000486126AC28684068FCF7A4FD20BB4FF4A5
:1056A000FA70FBF72FFF204628F0C2FE0028F1D049
:1056B0002A680120D36A23900020249013B1106837
:1056C00023A9984742F6B92042F6C77114A7C0F241
:1056D0000300C0F2030140F21B1202230097FDF702
:1056E0001BFC4FF0FF300AE02A68D36A906000206C
:1056F0002390249013B1106823A99847002027B065
:10570000BDE8F08F494F545F5365747570436F6EF9
:105710006E496E666F206661696C6564000000000A
:105720006D71747420636F6E6E6563742066616959
:105730006C6564002DE9F04F99B00DF12C0980469D
:1057400048460DF09DF9D8F80C10484628F065FE43
:105750000FA8C11C0A91011D1030089008F12C00FF
:10576000069008F1C80008F1C00B00264FF0000AAF
:1057700009910790BAF1000F0FD00FF2A0600090CE
:1057800042F64300C0F203000FF2A46140F245620A
:105790000223CDF804A0FDF7BFFBD8F8DC00FBF72F
:1057A000DDFDD8F80000FBF7D9FDD8F80000D8F8E7
:1057B0005C50FBF7FDFD022D4ED198F82000032828
:1057C0000CD3D8F80000FBF7C9FDD8F8000003217E
:1057D000C8F85C10FBF7ECFD88F8206040464946AD
:1057E0000CAA0CF0EFFB00284BD00746D8F8D800E5
:1057F000FBF7B4FDD8F8280028B1FBF7F6FCC8F891
:105800002860C8F81C60D8F8D800FBF7D1FD17F164
:105810000E000AD1D8F80000FBF7A0FDD8F8000070
:105820000321C8F85C10FBF7C3FD42F67660C0F2B6
:105830000300009042F6430042F6D661C0F2030036
:10584000C0F2030140F2ED5202230197FDF764FB21
:105850006FF00D0A02E000BF6FF01A0AD8F8DC0002
:10586000FBF7A6FD48460DF00FF90A2828BF0A20CD
:10587000FBF748FE484628F0DBFD00283FF47AAFEE
:10588000C9E20C98002800F0A280D8F80000FBF7CD
:1058900065FDD8F800004FF0000A88F820A0FBF75B
:1058A00087FDD8F8D800FBF759FD0C9802380B2873
:1058B00000F2DF80DFE810F0F9010C009D00DD0050
:1058C000DD00DD00DD00FF00DD003501DD00F90158
:1058D0000FAC20461421CDE90D66FAF790FDD8F8FB
:1058E0001C00D8F82810089ACDE9031001920A98F4
:1058F000099A0DF1500A0EA923460DAFCDE91566A0
:105900001496CDF800A00297FDF714FD012840F091
:1059100072810E980D998DF83E001598119100280E
:1059200000F05A811698002800F05681139804213F
:105930003C220CF02DF8169801210AF09DF9DDE9C2
:105940001510ADF842101290D8F80000FBF706FDD4
:10595000D8F83050069CAC4200F01C82002600BFF4
:1059600055F8041C5046FDF7B6FD28B955F8040C4F
:1059700051460CF0E5FAD8B1D8F80000FBF718FD55
:1059800055F80C3C83B10C2040F2106717900FA81B
:105990000126C2F2000718903E7055F8080C4146E7
:1059A00017AA984700203870D8F80000FBF7D6FCFB
:1059B0006D68AC42D4D1D8F80000FBF7F9FC002E9A
:1059C0004FF000064FF0010140F0FB81E7E1D8F80D
:1059D000D800FBF7C3FCD8F8280028B1FBF705FC7A
:1059E000C8F82860C8F81C60D8F8D800FBF7E0FCBD
:1059F0006CE1D8F81C70D8F828300EA817A914AAA2
:105A00008DF85C608DF838600097FDF74FFC012839
:105A100040F0A980D8F8D000BDF85050FBF79EFCAC
:105A2000D8F8C4000124834509D000BF30F80C1C0D
:105A3000A94208BF40F8104C40688345F6D1D8F819
:105A4000D000FBF7B5FCD8F8E030002B00F0168151
:105A5000BDF850000921CDE90F10D8F8E40040F25C
:105A60001065C2F2000541460FAA2C7098472E70AF
:105A700004E142F6430042F6D66142F62B47C0F2FB
:105A80000300C0F2030140F22E620223C0F20307BA
:105A90000097FDF741FAD8F8280028B1FBF7A5FBDD
:105AA000C8F82860C8F81C60D8F8D800FBF780FC5C
:105AB0004FF0FF3AD2E6D8F82800D8F81C700090D2
:105AC0000EA8052117AA0FAB17960197FDF774FCD6
:105AD000002869D417980128C0F29F80079C0025F0
